:03000000020A31C0
:0C0A3100787FE4F6D8FD758182020A7817
:1000260041542B4349504D55583D300041542B43C4
:10003600495053544152543D22544350222C22617C
:1000460070692E7468696E67737065616B2E636F75
:100056006D222C38300041542B43495053454E44B1
:100066003D353400474554202F7570646174653FF3
:100076006B65793D474A41345442413159533156B3
:1000860034565257266669656C64313D31313126E6
:100096006669656C64323D3132330041542B434905
:1000A60050434C4F53450041542B434C4453454E0B
:1000B600443D31300041542B434C44535441525437
:1000C6000041542B434C44554E42494E4400415442
:1000D6002B5253540041542B43574D4F44453D3109
:1000E6000041542B43574A41503D22595920574904
:1000F6004649222C226D6172793132333422004115
:10010600542B43495053544152543D332C225544A9
:1001160050222C22636C6F75642E61692D74686998
:100126006E6B65722E636F6D222C353030312C323A
:100136003436382C30005250543A223078613162CD
:100146003233343637222C223078616633323132FC
:100156003334222C223139322E3136382E302E319C
:100166003233222C226C69676874222C2231323396
:1001760034353661220041542B4349504D55583D84
:10018600310041542B43495053544152543D342C71
:1001960022554450222C22636C6F75642E61692DA2
:1001A6007468696E6B65722E636F6D222C35303004
:1001B600312C323436382C300041542B43535953AA
:1001C60049440041542B4357534D415254535441D3
:1001D60052543D310041542B4C414E5354415254DC
:1001E6000030303030303030303030303030303039
:1001F60030303030303030303030303030303030F9
:10020600303030310041542B43495053454E443D24
:10021600342C0041542B43495053454E443D332C16
:100226003633004C494748543A313B004C4947481D
:10023600543A303B00323436392C30002B43535974
:100246005349443A43484950002B4950442C004CEA
:10025600494748543A004C49474854523A004C4999
:10026600474854473A004C49474854423A002B49BC
:1002760050442C342C32363A52504C3A00574946A8
:100286004920474F54004C49474854523A004C497C
:0E029600474854473A004C49474854423A0002
:1007E000C107C10441003100C101410008004100BE
:1007F000041041000A0B4100413A41003E00C10093
:10080000C10341000500204043551E00A000F3C075
:1008100000000054019FA600000000000800CC5416
:10082000393A66AA1CB6C555000000000000000059
:1008300000000000000000000000000000000000B8
:100840000000000000000000004A003254454D50F6
:100850003A3132333B0041000D00C10542000B002C
:1008600000C106C108C10901100041003F0041005C
:1008700000014100010041004200410040004100F0
:0F0880000900410007004100060042000200008D
:100D6C00E4FF7F407843E4F608DFFCE490003CF0BD
:100D7C00D20C900068F0C20AF9900022C9F0A3F0DE
:030D8C00A3E9F0E8
:010D8F002241
:100B3200301070C21090000D7409F07D01FF12098F
:100B42007E7B017A00790E120BA67FE87E037D0080
:100B52007C00120CD97B017A00793290000DE0FD05
:100B6200120C4BC291D2B47FC87E007D007C001271
:100B72000CD9D291C2B412060F900055E0FD75F067
:100B82006484E5F075F00A842430900037F0ED7546
:100B9200F00A84E5F02430A3F0900056E02430906F
:040BA2000039F02204
:1006FC00E4FEFD7E0C900025E4F0A3DEFCE4FEEFAE
:10070C00B40114EE90028C93FC74252EF582E43423
:10071C0000F583ECF0802EEFB40214EE900294936B
:10072C00FC74252EF582E43400F583ECF08016EF92
:10073C00B40312EE90029C93FC74252EF582E434E3
:10074C0000F583ECF00EEEB407B5EFB401079000A2
:10075C0001E0FD8014EFB40207900042E0FD800937
:10076C00EFB40305900040E0FDEDC3940A4025ED85
:10077C0075F00A84243090002CF0ED75F00A84E5B5
:10078C00F02430A3F0A3740DF0A3740AF090000DC4
:10079C0004F08013ED243090002CF0A3740DF0A322
:1007AC00740AF090000DF090000DE0FF7D0112092D
:1007BC007E7B017A00790E120BA67F327E007D00C3
:1007CC007C00120CD97B017A00792590000DE0FD9C
:0307DC00120C4BB1
:0107DF0022F7
:100D90007C007DEC1205E29000591205D6900059B6
:0B0DA00074FF1205A3EC4D4E4F70F2E3
:010DAB002225
:1002A400E4900043F0A3F0A3F0C2CC120C96C2B4C5
:1002B4007FE87E037D007C00120CD9900001E09061
:1002C4000009F0900042E0900007F0900040E090B8
:1002D4000006F07B057D057F05120D0B12000E7BD9
:1002E400FF7A0079DB120BA67FF47E017D007C008F
:1002F400120CD9120D6C7BFF7A01797C120BA67F4C
:10030400F47E017D007C00120CD97BFF7A0079E732
:10031400120BA67FE87E037D007C00120CD99000AE
:1003240046E0FAA3E0FB7C007D64FFAE021204D138
:10033400AF05C007EB2421FFE43AFE7C007D641284
:1003440004D1C005E02442FF900046E03400FE7C66
:10035400007D641204D1AB05D005D007120D0B7FCC
:10036400327E007D007C00120CD9900046E0FEA392
:10037400E0FFD39463EE9400400A7C007D007E008D
:100384007F008007EF2401FFE43EFE900046EEF07C
:10039400A3EFF090004B74FFF0A37402F0A37483F6
:1003A400F07B007A0079431208BFE94A4B700302DC
:1003B40003227B057D057F05120D0B3093FD7BFF2A
:1003C4007A0079DB120BA67FF47E017D007C00129B
:1003D4000CD97BFF7A007926120BA67FF47E017D6F
:1003E400007C00120CD97BFF7A007932120BA67FB5
:1003F400E87E037D007C00120CD97BFF7A00795CD7
:10040400120BA67FE87E037D007C00120CD97BFFD3
:100414007A00796A120BA67F887E137D007C001215
:100424000CD97BFF7A0079A1120BA67FF47E017DA3
:10043400007C00120CD9900046E0FAA3E0FB7C009B
:100444007D64FFAE021204D1AF05C007EB2421FF87
:10045400E43AFE7C007D641204D1C005E02442FF2E
:10046400900046E03400FE7C007D641204D1AB05AC
:10047400D005D007120D0B7F057E007D007C001295
:100484000CD9900046E0FEA3E0FFD39463EE940001
:10049400400A7C007D007E007F008007EF2401FF7E
:1004A400E43EFE900046EEF0A3EFF02093880203B2
:0304B400B680838C
:0104B7002222
:0C088F00C10DC10B41006800C10CC10A82
:03002300020C00CC
:100C0000C0E0C083C082C0D075D000C000C0073033
:100C10009825C298D20C900068E4F0C20A90003C7B
:100C2000E0FF2443F8A699EFC3943E5005E004F09A
:100C3000800590003CE4F0309904C299C202D007CC
:0B0C4000D000D0D0D082D083D0E032B2
:100BA600900048EBF0A3EAF0A3E9F0900048E0FBE0
:100BB600A3E0FAA3E0F91204B8F599900049E475A8
:100BC600F0011205267F017E007D007C00120CD903
:100BD600900048E0FBA3E0FAA3E0F91204B870CB5A
:100BE60075990D7F01FEFDFC120CD975990A7F01DE
:090BF6007E007D007C00120CD988
:010BFF0022D3
:050C4B0090005DEDF0DA
:100C5000A3EBF0A3EAF0A3E9F090005DE0602BA322
:100C6000E0FBA3E0FAA3E0F91204B8F59990005F65
:100C7000E475F0011205267F017E007D007C0012E4
:100C80000CD990005DE014F080CF7F017E007D00E4
:050C90007C00120CD9EC
:010C9500223C
:100C9600C202E490003CF090003DF0E598543F44D9
:100CA60040F59853A23F538EEF438E01438E047551
:100CB600D6FF75D7D0438E10D29CD2ACD2AFD2BC61
:100CC600E4F5B175B2FF90003CF0E5A2543F444014
:030CD600F5A22262
:10097E00E4FE7E1490000EE4F0A3DEFCE4FEED70C7
:10098E0014EE90020B93FC740E2EF582E43400F5F7
:10099E0083ECF08016EDB40112EE9000AD93FC7472
:1009AE000E2EF582E43400F583ECF00EEEB40BCE91
:1009BE00C205EF75F06484FD60122430FD740E2EB6
:1009CE00F582E43400F583EDF00ED205EF75F06498
:1009DE0084E5F075F00A84FD60142430FD740E2E4B
:1009EE00F582E43400F583EDF00ED205801130056A
:1009FE000E740E2EF582E43400F5837430F00EEF93
:100A0E0075F00A84E5F02430FF740E2EF582E4347E
:100A1E0000F583EFF00E740E2EF582E43400F583AC
:020A2E00E4F0F2
:010A300022A3
:100DAC00E4FCFDFE9000611205D690006174FF1208
:080DBC0005A3EC4D4E4F70F24F
:010DC400220C
:060CD90090004B1205D64D
:100CDF00E47FECFEFDFC90004BE0F8A3E0F9A3E00D
:100CEF00FAA3E0FB12053C90004F1205D690004F7F
:0B0CFF0074FF1205A3EC4D4E4F70F285
:010D0A0022C6
:100D0B0043A22053A2EFE4F5D8F5E9F5F975D90222
:100D1B00F5F28FEA8FFA75DA42F5F3AF058FEB8FA9
:100D2B00FB75DB42F5F4AF038FEC8FFC75DC42D225
:020D3B00DE22B6
:100DC5008FEA8FFAAF058FEB8FFBAF038FEC8FFCAC
:010DD50022FB
:0F089B00C10F4200660000C11041006500C10E90
:03000B00020ABD29
:100ABD00C0E0C0F0C083C082C0D075D00890006582
:100ACD00E0C3940A5005E004F08007900065E4F05F
:100ADD00D20E900066E0FEA3E0FFE4FCFD7B607AA1
:100AED00EAF9F8D312058B4010900067E004F0701E
:100AFD0006900066E004F08009D210900066E4F0E4
:100B0D00A3F0900068E0C3940A5005E004F0800A59
:100B1D00300C07200A04C20CD20AD0D0D082D08368
:050B2D00D0F0D0E03221
:10000E00438E80C2B9E4F589758A9A758CA9D28C13
:05001E00D2A9D2AF22BF
:1008AA0041005700410058004100550041005600E0
:0408BA0041005400A5
:100D3D00E4900069F07F06120DAC30B5FDE4900033
:100D4D0069F030B50D7F01120DAC900069E004F033
:0E0D5D0080F0900069E0D3940A4002D322C3D4
:010D6B002265
:10060F00C2B57F147E007D007C00120CD9D2B57F5D
:10061F000A120DAC30B5FD7F06120DAC20B5FDE40E
:10062F0090006AF0120D3D500B900057E0FF25E04F
:10063F0004F08008900057E0FF25E0F090006AE09A
:10064F0004F0E0C3940840DCE490006AF0120D3D22
:10065F00500B900058E0FF25E004F0800890005800
:10066F00E0FF25E0F090006AE004F0E0C39408405A
:10067F00DCE490006AF0120D3D500B900055E0FF46
:10068F0025E004F08008900055E0FF25E0F0900091
:10069F006AE004F0E0C3940840DCE490006AF012D2
:1006AF000D3D500B900056E0FF25E004F0800890C0
:1006BF000056E0FF25E0F090006AE004F0E0C394FC
:1006CF000840DCE490006AF0120D3D500B9000548E
:1006DF00E0FF25E004F08008900054E0FF25E0F0F3
:0C06EF0090006AE004F0E0C3940840DCD6
:0106FB0022DC
:100A3D000202A4E493A3F8E493A34003F68001F229
:100A4D0008DFF48029E493A3F85407240CC8C333BA
:100A5D00C4540F4420C8834004F456800146F6DF89
:100A6D00E4800B01020408102040809007E0E47E32
:100A7D00019360BCA3FF543F30E509541FFEE4937E
:100A8D00A360010ECF54C025E060A840B8E493A345
:100A9D00FAE493A3F8E493A3C8C582C8CAC583CA70
:100AAD00F0A3C8C582C8CAC583CADFE9DEE780BE28
:0108BE000039
:1004B800BB010689828A83E0225002E722BBFE0242
:0904C800E32289828A83E4932275
:1004D100BC000BBE0029EF8DF084FFADF022E4CC0F
:1004E100F875F008EF2FFFEE33FEEC33FCEE9DECD8
:1004F100984005FCEE9DFE0FD5F0E9E4CEFD22ED1E
:10050100F8F5F0EE8420D21CFEADF075F008EF2F67
:10051100FFED33FD4007985006D5F0F222C398FD58
:050521000FD5F0EA22F5
:10052600C5F0F8A3E028F0C5F0F8E5821582700260
:060536001583E038F022FD
:10053C00E88FF0A4CC8BF0A42CFCE98EF0A42CFC5E
:10054C008AF0EDA42CFCEA8EF0A4CDA8F08BF0A4DC
:10055C002DCC3825F0FDE98FF0A42CCD35F0FCEB3B
:10056C008EF0A4FEA9F0EB8FF0A4CFC5F02ECD3900
:0F057C00FEE43CFCEAA42DCE35F0FDE43CFC226D
:10058B00EB9FF5F0EA9E42F0E99D42F0EC6480C8E7
:06059B0064809845F02287
:1005A1007401FF3395E0FEFDFCA3A3A3E0CF2FF080
:1005B100E582158270021583E0CE3EF0E582158258
:1005C10070021583E0CD3DF0E5821582700215833E
:0505D100E0CC3CF0222B
:0C05D600ECF0A3EDF0A3EEF0A3EFF02298
:1005E200EC8EF0A4CCC5F0CCCDF8EFA4CEC5F02DA6
:1005F200FDE43CFCE8A42EC8C5F03DFDE43CFCEF64
:0D060200A4FFE5F028FEE43DFDE43CFC22F1
:1008BF00900048EBF0A3EAF0A3E9F0A3E0FBA3E07C
:1008CF00FAA3E0F91204B8700302096B900048E034
:1008DF00FBA3E0FAA3E0F91204B8700302097790C2
:1008EF00004BE0F9A3E0FAA3E0A3C9F0A3EAF0A359
:1008FF00E9F0900048A3E0FAA3E0F9900051EBF083
:10090F00A3EAF0A3E9F090004EE0FBA3E0FAA3E026
:10091F00F91204B8FF6026900051E0FBA3E0FAA3A0
:10092F00E0F91204B86F701590004F75F0011205C1
:10093F0026900052E475F00112052680C990004EF2
:10094F00E0FBA3E0FAA3E0F91204B87002800D9067
:10095F000049E475F0011205260208DB900048E01B
:0F096F00FBA3E0FAA3E0F9227B007A00790022D3
:00000001FF
